:100000000C9467000C948F000C948F000C948F005C
:100010000C948F000C948F000C948F000C948F0024
:100020000C948F000C948F000C948F000C948F0014
:100030000C948F000C948F000C948F000C948F0004
:100040000C949A030C948F000C940A040C94E4030F
:100050000C948F000C948F000C948F000C948F00E4
:100060000C948F000C948F000000000024002700E7
:100070002A0000000000250028002B0000000000DE
:1000800023002600290004040404040404040202DA
:100090000202020203030303030302020301020438
:1000A00008102040800102040810200102040810FA
:1000B0002040804000000009000302000004050801
:1000C0000000000000000000000000003C041124BB
:1000D0001FBECFEFD8E0DEBFCDBF12E0A0E0B1E0A1
:1000E000E6EDF0E102C005900D92A03FB107D9F70F
:1000F00023E0A0EFB2E001C01D92A83CB207E1F7F7
:1001000010E0C7E6D0E004C02197FE010E944E082F
:10011000C636D107C9F70E947F040C9469080C9475
:100120000000843081F028F48230E9F08330F9F067
:100130000895883071F0893091F08530B9F480915C
:1001400080008F7D03C0809180008F778093800036
:1001500008958091B0008F778093B00008958091CA
:10016000B0008F7DF9CF84B58F7784BD089584B5B5
:100170008F7DFBCFCF93DF93282F30E0F901EC5434
:10018000FF4F8491F901E356FF4FD491F901EA57EB
:10019000FF4FC491CC23A1F081110E949100EC2F5C
:1001A000F0E0EE0FFF1FE458FF4FA591B491EC91E2
:1001B000ED2381E090E009F480E0DF91CF91089594
:1001C00080E090E0FACF1F93CF93DF93282F30E0A9
:1001D000F901EC54FF4F8491F901E356FF4FD4919C
:1001E000F901EA57FF4FC491CC23A9F0162F8111D2
:1001F0000E949100EC2FF0E0EE0FFF1FEE58FF4F32
:10020000A591B4918FB7F894EC91111108C0D095D5
:10021000DE23DC938FBFDF91CF911F910895DE2BFA
:10022000F8CFCF93DF9390E0FC01E356FF4F24918A
:100230008A579F4FFC0184918823D1F090E0880F6A
:10024000991FFC01E859FF4FA591B491FC01EE58AC
:10025000FF4FC591D491623071F49FB7F8943C91EF
:10026000822F809583238C93E8812E2B28839FBF38
:10027000DF91CF9108958FB7F894EC912E2B2C93AA
:100280008FBFF6CF3FB7F89480912103909122035E
:10029000A0912303B091240326B5A89B05C02F3F4E
:1002A00019F00196A11DB11D3FBFBA2FA92F982F9C
:1002B0008827BC01CD01620F711D811D911D42E097
:1002C000660F771F881F991F4A95D1F708958F925F
:1002D0009F92AF92BF92CF92DF92EF92FF920E94D5
:1002E00042014B015C0184EFC82EDD24D394E12C44
:1002F000F12C0E944201681979098A099B09683E1C
:10030000734081059105A8F321E0C21AD108E108E4
:10031000F10888EE880E83E0981EA11CB11CC11460
:10032000D104E104F10429F7FF90EF90DF90CF9022
:10033000BF90AF909F908F9008952FB7F8946091E1
:100340001D0370911E0380911F03909120032FBF06
:100350000895AF92BF92CF92DF92EF92FF920F93E8
:100360001F93CF93DF936C017B018B01040F151F4B
:10037000EB015E01AE18BF08C017D10759F06991B3
:10038000D601ED91FC910190F081E02DC601099517
:10039000892B79F7C501DF91CF911F910F91FF90C4
:1003A000EF90DF90CF90BF90AF900895FC01538DF8
:1003B000448D252F30E0842F90E0821B930B54173F
:1003C00010F0CF96089501970895FC01918D828DCC
:1003D000981761F0A28DAE0FBF2FB11D5D968C9165
:1003E000928D9F5F9F73928F90E008958FEF9FEFA4
:1003F0000895FC01918D828D981731F0828DE80F60
:10040000F11D858D90E008958FEF9FEF0895FC0119
:10041000918D228D892F90E0805C9F4F821B9109E6
:100420008F739927089585E293E00E94070221E0E7
:10043000892B09F420E0822F089580E090E0892B39
:1004400029F00E94130281110C9400000895FC0110
:10045000A48DA80FB92FB11DA35ABF4F2C91848D25
:1004600090E001968F739927848FA689B7892C9382
:10047000A089B1898C91837080648C93938D848DD5
:10048000981306C00288F389E02D80818F7D8083D8
:100490000895EF92FF920F931F93CF93DF93EC0198
:1004A00081E0888F9B8D8C8D98131AC0E889F9891B
:1004B000808185FF15C09FB7F894EE89FF8960831E
:1004C000E889F98980818370806480839FBF81E09F
:1004D00090E0DF91CF911F910F91FF90EF900895E1
:1004E000F62E0B8D10E00F5F1F4F0F731127E02EBC
:1004F0008C8D8E110CC00FB607FCFACFE889F989F4
:10050000808185FFF5CFCE010E942702F1CFEB8DD0
:10051000EC0FFD2FF11DE35AFF4FF0829FB7F894C7
:100520000B8FEA89FB8980818062CFCFCF93DF93E5
:10053000EC01888D8823B9F0AA89BB89E889F989FB
:100540008C9185FD03C0808186FD0DC00FB607FC30
:10055000F7CF8C9185FFF2CF808185FFEDCFCE0163
:100560000E942702E9CFDF91CF91089560E085E0F6
:100570000E94E30060E086E00E94E30060E084E027
:100580000C94E300CF93DF93C3E0D0E061E085E01B
:100590000E94E30061E084E00E94E30061E086E005
:1005A0000E94E3000E94670160E085E00E94E30092
:1005B00060E084E00E94E30060E086E00E94E300E7
:1005C0000E946701219711F7DF91CF910895FC01F7
:1005D00001900020E9F73197AF01481B590BBC018E
:1005E00085E293E00C94A9018F929F92AF92BF9203
:1005F0000F931F93CF93DF93CDB7DEB7A1970FB6BD
:10060000F894DEBF0FBECDBF19A2423008F44AE015
:100610008E010F5D1F4F842E912CB12CA12CA501B2
:1006200094010E94F507E62FB901CA01EA30F4F4FB
:10063000E05DD801EE938D01232B242B252B79F738
:1006400090E080E0109719F0CD010E94E702A1969A
:100650000FB6F894DEBF0FBECDBFDF91CF911F91D3
:100660000F91BF90AF909F908F900895E95CE1CF7C
:10067000CF92DF92EF92FF92CF93DF936B017C01D9
:100680006DE285E293E00E944902EC01662777273C
:10069000CB016C197D098E099F094AE00E94F40282
:1006A0008C0F9D1FDF91CF91FF90EF90DF90CF9047
:1006B0000895CF93DF93D0E0C0E0009719F00E9437
:1006C000E702EC018CE691E00E94E7028C0F9D1F8F
:1006D000DF91CF910895CF93DF9340910403509120
:1006E00005036AEF72E086E093E00E945B08EC018C
:1006F00061E0892B09F060E0862F90E09093F90289
:100700008093F80285E00E94E30061E0CD2B09F4BC
:1007100060E086E0DF91CF910C94E300EAEFF2E035
:100720008AE0DF011D928A95E9F710920503109285
:10073000040308951F920F920FB60F9211242F9366
:100740003F938F939F93AF93BF9380911D0390919D
:100750001E03A0911F03B091200330911C0323E0DE
:10076000230F2D3768F126E8230F0296A11DB11D36
:1007700020931C0380931D0390931E03A0931F03DB
:10078000B09320038091210390912203A091230331
:10079000B09124030196A11DB11D80932103909374
:1007A0002203A0932303B0932403BF91AF919F91A1
:1007B0008F913F912F910F900FBE0F901F90189522
:1007C0000196A11DB11DD4CF1F920F920FB60F92AB
:1007D00011242F933F934F935F936F937F938F9346
:1007E0009F93AF93BF93EF93FF9385E293E00E94B3
:1007F0002702FF91EF91BF91AF919F918F917F91D0
:100800006F915F914F913F912F910F900FBE0F907D
:100810001F9018951F920F920FB60F9211242F93CD
:100820008F939F93EF93FF93E0913503F0913603FD
:100830008081E0913B03F0913C0382FD1BC09081DD
:1008400080913E038F5F8F7320913F03821741F0A9
:10085000E0913E03F0E0EB5DFC4F958F80933E030B
:10086000FF91EF919F918F912F910F900FBE0F905D
:100870001F9018958081F4CFE5E2F3E01382128295
:1008800088EE93E0A0E0B0E084839583A683B783ED
:1008900082E591E09183808385EC90E09587848761
:1008A00084EC90E09787868780EC90E0918B808B3A
:1008B00081EC90E0938B828B82EC90E0958B848B23
:1008C00086EC90E0978B868B118E128E138E148E91
:1008D000E091C603F091C703EE0FFF1FEE0FFF1F5D
:1008E000E05AFE4F80819181A281B3818093C2033F
:1008F0009093C303A093C403B093C5030895789461
:1009000084B5836084BD85B5836085BD80916E00AC
:10091000816080936E0092E09093810080918100CD
:10092000816080938100809180008160809380004D
:100930008091B10084608093B1008091B0008160AB
:100940008093B00087E880937A001092C100E09114
:100950003503F09136039083E0913103F091320337
:100960001082E0913303F09134038FEC8083109276
:100970003D03E0913903F0913A0386E08083E091F2
:100980003703F0913803808188698083E0913703D1
:10099000F091380380818F7D80838FE691E00E9403
:1009A000590362E082E00E94110162E083E00E944C
:1009B000110161E085E00E94110161E084E00E9484
:1009C000110161E086E00E9411010E94B60280E4FC
:1009D00080937C0080917A00806480937A0080917B
:1009E0007A0086FDFCCF6091780070917900072E27
:1009F000000C880B990B611571058105910511F0AB
:100A00000E94BA075DE1852E912CA12CB12C66E0E5
:100A1000C62E63E0D62E03E010E070E0672E70E093
:100A2000772EEE24E394F12C82E00E94BA00EC01D0
:100A30008091020190910301C817D90751F00E94DB
:100A40009D016093F0027093F1028093F202909303
:100A5000F3020E949D012091F0023091F102409139
:100A6000F2025091F302621B730B840B950B6333FC
:100A700071058105910508F45BC08091000190919A
:100A80000101C817D90709F453C080911A03909146
:100A90001B03D0930101C0930001209709F048C0C7
:100AA000892B09F058C10E94C202F0921B03E09208
:100AB0001A030E949D01609316037093170380939D
:100AC0001803909319030E949D0160931003709383
:100AD0001103809312039093130310921503109245
:100AE00014030E946B07A50194010E94C307660FBF
:100AF000771F6E5E7E4FFB016081718186E093E01F
:100B00000E94540885E891E00E94590386E093E032
:100B10000E94590361E085E00E94E30060E084E008
:100B20000E94E30060E086E00E94E3000E948E03E2
:100B3000D0930301C093020183E00E94BA00EC014C
:100B40008091060190910701C817D90751F00E94C2
:100B50009D016093F4027093F5028093F6029093E6
:100B6000F7020E949D012091F4023091F50240911C
:100B7000F6025091F702621B730B840B950B6333E3
:100B800071058105910508F442C08091040190919E
:100B90000501C817D907D9F180911A0390911B0359
:100BA000D0930501C0930401209789F5892B79F52D
:100BB0008091C6039091C7030196B8010E94260850
:100BC0009093C7038093C603880F991F880F991FBE
:100BD000FC01E05AFE4F80819181A281B381809314
:100BE000C2039093C303A093C403B093C50388ECDE
:100BF00091E00E94E702E091C603F091C703EE0F77
:100C0000FF1FE45FFE4F808191810E945903D093C2
:100C10000701C093060180911A0390911B03892B51
:100C200009F401C10E949D01209116033091170320
:100C30004091180350911903621B730B840B950BA1
:100C40006033754781059105F0F010921B031092F7
:100C50001A038BED91E00E94590382EB91E00E9410
:100C6000E7026091140370911503072E000C880BA6
:100C7000990B97FF95C00E9438038CE691E00E9483
:100C8000E7020E94B6020E949D012091100330915C
:100C900011034091120350911303621B730B840BD9
:100CA000950B2091C2033091C3034091C40350912E
:100CB000C503621773078407950728F182EF91E057
:100CC0000E9459030E946B07A50194010E94C3076B
:100CD000660F771F6E5E7E4FFB016081718186E03B
:100CE00093E00E94540886E093E00E9459030E941A
:100CF0008E030E949D0160931003709311038093F3
:100D000012039093130385E293E00E9407021816E2
:100D100019060CF088C085E293E00E94E501883056
:100D200019F08F3709F040C08091040390910503BA
:100D30001816190644F7019790930503809304034E
:100D400086509D4FFC01108287E192E00E94E702ED
:100D50000E946B03D8CF0E94C20210921B03109214
:100D60001A0383EA91E00E94590382EB91E00E940A
:100D7000E7026091140370911503072E000C880B95
:100D8000990B97FF09C00E9438038CE691E00E94FE
:100D9000E7020E94B602CCCE4AE00E94F402F5CFF0
:100DA0004AE00E94F40269CF8D3009F4ACCF8A305A
:100DB00009F4A9CF209104033091050329303105AE
:100DC00008F0A1CFE9012196D0930503C093040355
:100DD00026503D4FF9018083682F85E293E00E9401
:100DE00049020E946B038091F8029091F902892BCD
:100DF00009F489CFF60101900020E9F7CF0187506F
:100E000093408C179D0709F07ECF8BE192E00E9402
:100E10005903809114039091150301969093150343
:100E2000809314034FCF6114710409F4FDCD0E9427
:100E30001302882309F4F8CD0E940000F5CD8F92AB
:100E40009F92AF92BF92CF92DF92EF92FF92CF9399
:100E5000DF93EC01688179818A819B81611571053D
:100E60008105910521F464E279ED8BE597E02DE1B0
:100E700033EF41E050E00E94C30749015A019B0152
:100E8000AC01A7EAB1E40E94E2076B017C01ACEE81
:100E9000B4EFA50194010E94F007C60ED71EE81E0C
:100EA000F91EF7FE06C081E0C81AD108E10880E803
:100EB000F80AC882D982EA82FB82C701B6019F770D
:100EC000DF91CF91FF90EF90DF90CF90BF90AF90E8
:100ED0009F908F9008958F929F92AF92BF92CF92E2
:100EE000DF92EF92FF926091080170910901809169
:100EF0000A0190910B01611571058105910521F49D
:100F000064E279ED8BE597E02DE133EF41E050E0CD
:100F10000E94C30749015A019B01AC01A7EAB1E451
:100F20000E94E2076B017C01ACEEB4EFA5019401D5
:100F30000E94F007C60ED71EE81EF91EF7FE06C077
:100F400081E0C81AD108E10880E8F80AC0920801D7
:100F5000D0920901E0920A01F0920B01C701B6019B
:100F60009F77FF90EF90DF90CF90BF90AF909F90D2
:100F70008F900895609308017093090180930A018E
:100F800090930B010895052E97FB1EF400940E9488
:100F9000DA0757FD07D00E94F50707FC03D04EF48F
:100FA0000C94DA0750954095309521953F4F4F4F5F
:100FB0005F4F089590958095709561957F4F8F4F05
:100FC0009F4F08950E941708A59F900DB49F900D04
:100FD000A49F800D911D11240895B7FF0C94E20782
:100FE0000E94E207821B930B0895A1E21A2EAA1B0E
:100FF000BB1BFD010DC0AA1FBB1FEE1FFF1FA217C9
:10100000B307E407F50720F0A21BB30BE40BF50BC5
:10101000661F771F881F991F1A9469F7609570954E
:10102000809590959B01AC01BD01CF010895A29FD1
:10103000B001B39FC001A39F700D811D1124911DAC
:10104000B29F700D811D1124911D089597FB072EED
:1010500016F4009407D077FD09D00E943A0807FCE7
:1010600005D03EF4909581959F4F089570956195B8
:101070007F4F0895AA1BBB1B51E107C0AA1FBB1FCE
:10108000A617B70710F0A61BB70B881F991F5A9514
:10109000A9F780959095BC01CD010895EE0FFF1F33
:1010A0000590F491E02D0994FB01DC0101900D9273
:1010B0000020E1F70895FB01DC014150504030F081
:1010C0008D910190801919F40020B9F7881B990BB4
:0610D0000895F894FFCF23
:1010D600010001000100010001000000300235029C
:1010E6003C02410247024B02510257025E02640271
:1010F6006A02700275027B02800286028D029402E9
:1011060099029E02A402AA02AF02B502BB02C10264
:10111600C702CD02D202D702DD02E302E9020000D5
:1011260000004902A901D60196020702E501F9016C
:1011360088130000B80B0000D00700000D0A005706
:10114600656C636F6D6520746F20547970655261AC
:1011560063657221000A47616D652073746172745C
:1011660065642120547970652074686520776F72F4
:10117600643A000A47616D652073746F7070656428
:101186002E00436F727265637420776F72647320EA
:1011960074797065643A2000446966666963756CA3
:1011A60074792073657420746F20000A54696D6524
:1011B6002773207570212047616D65206F766572F3
:1011C6002E000A54696D65277320757020666F724C
:1011D600207468697320776F726421204E65787475
:1011E60020776F72643A00082008000A436F727213
:1011F60065637421204E65787420776F72643A00B7
:1012060045617379004D656469756D004861726466
:10121600006170706C650063617200706561726C6C
:10122600006D656C6F6E006C6170746F7000706835
:101236006F6E6500627261766500636861726D004B
:1012460062756C62006561676C650066697265004F
:10125600676C6F6265006368696C6C7900666C6FB9
:1012660077657200686172640065617379006C6508
:101276006D6F6E006D616E676F0074616C6C006FF0
:101286006365616E007065616365006265616368D0
:10129600007374617274007368696E790073746F99
:1012A60070006369747900636F6C6F7200736861B4
:1012B600726B006C6967687400796F756E67000001
:00000001FF
